:020000040800F2
:10000000C0070020B502000839360008F9290008A9
:10001000353600087D0C00084D5F00080000000028
:100020000000000000000000000000004D56000825
:10003000810C0008000000004136000851560008FD
:10004000CF020008CF020008CF020008CF0200084C
:10005000CF020008CF020008CF020008CF0200083C
:10006000CF020008CF020008CF020008CF0200082C
:10007000CF020008CF020008CF020008CF0200081C
:10008000CF02000800000000CF020008CF020008E5
:10009000CF020008CF020008CF020008CF020008FC
:1000A000CF020008CF020008CF020008CF020008EC
:1000B000CF020008CF020008CF020008CF020008DC
:1000C000CF020008CF020008CF020008CF020008CC
:1000D000CF020008415F0008CF020008CF020008ED
:1000E000CF020008CF020008CF020008CF020008AC
:1000F000CF020008CF020008CF0200080000000075
:1001000000000000CF02000800000000CF0200083D
:10011000CF02000800000000CF020008CF02000854
:10012000CF020008CF020008CF020008CF0200086B
:10013000CF0200080000000000000000CF0200080D
:10014000CF020008CF0200080000000000000000FD
:10015000000000000000000000000000000000009F
:10016000000000000000000000000000CF020008B6
:10017000CF020008000000000000000000000000A6
:1001800000000000CF020008000000000000000096
:10019000000000000000000000000000000000005F
:1001A0000000000000000000CF020008CF0200089D
:1001B000CF020008CF020008CF02000800000000B4
:1001C00000000000CF020008000000000000000056
:1001D000CF020008CF02000800F002F800F05AF841
:1001E00014A696E8000CB244B344DA4501D100F0FD
:1001F00051F8BAE80F000FA696E83000A5EB040509
:1002000004EB0607AAEB0704A7F101074FEA15154F
:100210004FEA3414A4F10104AC4201D300F03AF8DF
:1002200013F0010F18BFFB1A43F0010300F001F8AF
:10023000DBE718471470000034700000103A24BF48
:1002400078C878C1FAD8520724BF30C830C144BF3B
:1002500004680C6070470000704700000023002411
:1002600000250026103A28BF78C1FBD8520728BFC6
:1002700030C148BF0B607047642900F025816329B5
:1002800000F0FF82002070471FB505F0C0FE1FBDC3
:1002900010B510BD00F023FB1146FFF7F5FF05F088
:1002A00057FE00F041FB03B4FFF7F2FF03BC00F080
:1002B00049FB00000948804709480047FEE7FEE780
:1002C000FEE7FEE7FEE7FEE7FEE7FEE7FEE7FEE706
:1002D00004480549054A064B70470000555600087A
:1002E000D9010008C0010020C0070020C003002081
:1002F000C003002053EA020C00F069802DE9F04BA6
:100300004FF00006002B1FBFB3FA83F503FA05F484
:1003100024FA05F65E4012BF1643B2FA82F502FADD
:1003200005F4C5F120051EBF22FA05FC44EA0C04C1
:10033000203556EA044C4FEA144418BF641C4FF0B1
:1003400000084FF00009904271EB030C39D30029EB
:1003500019BFB1FA81F701FA07F6B0FA80F700FA8F
:1003600007F6C7F120071EBF20FA07FC46EA0C0675
:100370002037B6FBF4FCA7EB0507103F07F01F0B77
:10038000CBF120062CFA06F60CFA0BFB44BFB34661
:100390000026202FA4BF5E464FF0000B5BEA060C40
:1003A00008BF4FF0010B19EB0B0948EB0608ABFB3C
:1003B000027C06FB02CC0BFB03CCC01B71EB0C01D7
:1003C000C1E70B46024641464846BDE8F08B13B5EF
:1003D000084318BF4FF0FF300146AFF30080BDE87F
:1003E0001C4070470FB41CB5074B06AA7B446946F6
:1003F0000090059800F023FA0020694600F032FAD8
:100400001CBC5DF814FB0000750400002DE9F041F0
:100410000E460446002020622046E168884730B33B
:10042000252805D0D4E901219047206A401CF2E735
:10043000E168204600278847050018D0A5F1410053
:10044000192802D820354FF4006732462946204645
:100450002760FFF711FF40B1012804D0F61D26F0F8
:1004600007060836D8E7361DD6E72846DAE7206AB9
:10047000BDE8F08170B50C460546012A05D0287804
:10048000800600D5EA69002302E0012305E05B1C39
:10049000934202D2E05C0028F9D1A869E618C01A9C
:1004A000A861286A184428622846AFF3008004E057
:1004B000D5E9012114F8010B9047B442F8D328463E
:1004C000AFF3008070BD00002DE9F0410646002426
:1004D00010687529314616A510D0AFF300800028AA
:1004E00002DA404213A507E031688A0701D512A558
:1004F00002E0490704D511A5012401E0AFF3008013
:1005000000210A2206F1240709E0B0FBF2FCB0FB4F
:10051000F2F302FB1C00303078541846491C0028C6
:10052000F3D123462A463046BDE8F04100F029B910
:10053000000000002D0000002B0000002000000043
:1005400040EA0103024630B59B0710D14FF0013459
:1005500000E008C208C91D1B9D4315EAC41FF8D05E
:1005600013F0FF0102F8011B0DD01B0AF8E711F888
:10057000013B002B02F8013B05D011F8013B002B99
:1005800002F8013BF3D130BD10B5431C02E010F876
:10059000011B71B18107FAD14FF0013202C88C1AE8
:1005A0008C4314EAC211F9D0C01A0A0603D0C01E47
:1005B00010BDC01A10BD0A0401D0801E10BD090272
:1005C000FCD0401E10BD40EA010370B59B072ED140
:1005D0004FF00136042A2AD308C810C99D1B9D4339
:1005E000121F15EAC61517D0D8B2E1B2401A50EA68
:1005F000056110D198B2A1B2401A50EA05410AD162
:1006000023F07F4024F07F41401A50EA052102D1B7
:10061000180EA0EB146070BDA342DBD018BA21BA4B
:10062000884201D9012070BD4FF0FF3070BD0AB97A
:10063000002070BD10F8013B11F8014B63B1A342DB
:100640000AD1521E08D010F8013B11F8014B1BB122
:10065000A34201D1521EEDD1181B70BD4FF0000214
:1006600000B5134694469646203922BFA0E80C50A8
:10067000A0E80C50B1F12001BFF4F7AF090728BF83
:10068000A0E80C5048BF0CC05DF804EB890028BFFF
:1006900040F8042B08BF704748BF20F8022B11F028
:1006A000804F18BF00F8012B704710B5044610F0BA
:1006B000030F08BF11F0030F40F015804FF0013E0B
:1006C000121FC0F20E8051F8043BA3EB0E0C2CEA73
:1006D000030C1CEACE1C08BF40F8043BF0D0A1F18B
:1006E000040102F10402521E08DB11F8013B00F87C
:1006F000013B002BF7D1114600F0CFF8204610BD8A
:1007000030B44FF0013C50F8042B51F8043BCCFAC4
:1007100052F4D51A20D1FCB950F8042B51F8043BFF
:10072000CCFA52F4D51A17D1B4B950F8042B51F8B9
:10073000043BCCFA52F4D51A0ED16CB950F8042B04
:1007400051F8043BCCFA52F4D51A05D1002CDAD07A
:1007500030BC4FF00000704729BAB1FA81F111F0B6
:100760001801D1F120008440F2D1CA40CB4012F0F0
:10077000FF0213F0FF0330BCD01A70477047704778
:1007800070472DE9F0470D4699469246044600F120
:1007900024080168880604D5E06921F01001216071
:1007A00000E00120A84201DD471B00E00027A1690D
:1007B0007A1902EB0900081AA0612078C00602D459
:1007C0002046AFF30080002608E0D4E901211AF8A2
:1007D00006009047206A401C761C20624E45F4DBE0
:1007E0002078C0060AD52046AFF3008006E0D4E9A1
:1007F000012130209047206A401C2062381EA7F15A
:100800000107F4DC07E0D4E9012118F8050090475E
:10081000206A401C2062281EA5F10105F3DC204659
:10082000AFF300802078000602D50220BDE8F087F3
:100830000120FBE701694A1C02610878704700B596
:100840008FB0CDE901310021059105497944CDE909
:10085000031011466846FFF7D9FD0FB000BD000038
:10086000E5FFFFFF0A6802F8010B0A60704710B548
:10087000436913B1AFF3008001E0FFF7FBFD0120F6
:1008800010BD127800F124010A7000224A70012282
:10089000EDE711684FF0FF32E9E74FF0000204295D
:1008A000C0F0128010F0030C3FF4DAAECCF1040C6F
:1008B000BCF1020F18BF00F8012BA8BF20F8022BD3
:1008C000A1EB0C01FFF7CCBE5FEAC17C24BF00F8AE
:1008D000012B00F8012B48BF00F8012B704775462B
:1008E00000F02CF8AE4605006946534620F007009C
:1008F000854618B020B5FFF7EBFCBDE820404FF06F
:1009000000064FF000074FF000084FF0000BAC4618
:10091000ACE8C009ACE8C009ACE8C009ACE8C00963
:1009200021F007018D46704710B50446AFF30080F3
:100930002046BDE81040FFF7B6BC000000487047F5
:100940001000002001491820ABBEFEE7260002007F
:1009500070470000B0B540F28C04C2F20004217D63
:1009600001B1B0BD411E022916D82044C17E3039E4
:10097000CAB2FF3A18BF0A46012151FA82F141F684
:100980009A124A43120C02EB8202A1EB420141F09F
:100990003001C176B0BD00BF0428E2D104F11C00D3
:1009A00004F118010322FFF70EFEB8B144F2400033
:1009B000C0F24000E06194F8210000250130C1B28E
:1009C000032984F8205084F8210038BFB0BD41F2DB
:1009D000883002F001FD84F82150B0BD4FF4FA6078
:1009E00020850A2084F82A0040F2B810C2F20000E4
:1009F000006841F28831C4E90B0101254FF4FA6027
:100A00000A2184F8345002F019FE41F2883002F0D5
:100A1000DFFC0020257584F82100B0BD70B582B0E0
:100A20000446FFF7B1FD072827D1E0782D2824D10F
:100A300001AD284621460322FFF737FE0026211D7F
:100A4000684603228DF80760FFF72FFE40F28C0006
:100A5000C2F2000000F11804284621468DF8036018
:100A6000FFF74EFE10B106A005E000BF6946204624
:100A7000FFF766FD07A005F087F802B070BD00BF64
:100A800057726F6E672070617373776F7264210D98
:100A90000A00000050617373776F726420636861AD
:100AA0006E676564210D0A00B0B540F28C0443F214
:100AB000312044F24001C2F20004C0F23300C0F21F
:100AC0004001C4E906014FF47A702085322084F891
:100AD0002A000120002584F834004FF47A70322176
:100AE0002584256302F0AAFD257500206564BDE814
:100AF000B04001F0EDBF000070B582B040F2B81018
:100B000040F28C04C2F20000C2F200040568A06B3F
:100B100048B1281A41F28831884204D300200026C7
:100B200002F05EFCA663E06B10B3281A41F2883134
:100B3000884205D3012002F053FC0020E06317E057
:100B400080B2800841F27B41484394F84010C0F3E2
:100B500040428A420CD0400C10F0010084F8400062
:100B60004FF0010002D102F03BFC01E002F040FC3A
:100B700094F83400D0B1206BC0B1E16A691A8142A7
:100B800014D34FF47A702085322084F82A0000268E
:100B90004FF47A703221266302F050FD44F2400097
:100BA000C0F240002675E06184F82060606C281A6D
:100BB00064282CD3207D01280ED038BB24A100202E
:100BC00002F0C8F8227F637FA67F26A12046009608
:100BD000FFF708FC302013E00EA1002002F0BAF865
:100BE000228D11A12046FFF7FDFB3020214602F0A7
:100BF000B1F894F82A2011A12046FFF7F3FB6020FA
:100C000040F28C01C2F2000102F0A4F8656402B067
:100C100070BD00BF202020202020535441202020E0
:100C20002020202020000000202020463A25644873
:100C30007A20202020202020202000002020204476
:100C40003A25642525202020202020202020200057
:100C5000202020202020505344202020202020200D
:100C6000200000002020202563202563202563200C
:100C7000202020202020202000000000FEE700008F
:100C800070470000EFF3108072B600BFFEE700006F
:100C900090F82510022931D180B50168D0E910CE35
:100CA000826C0B6823F00E030B600B6823F00103CA
:100CB0000B60116821F4807111600EF01F02012198
:100CC00001FA02F2CCF80420D0E913325A60426DE6
:100CD00032B1136823F480731360D0E91623536094
:100CE00080F82510826B002180F824100AB190470B
:100CF0000021BDE880400846704700BF0421C16361
:100D00000121002280F8251080F824200846704731
:100D1000B0B5044600F0FEF8054640F20000C2F20D
:100D200000004068611C18BF044400BF00F0F2F8E6
:100D3000401BA042FAD3B0BD2DE9F04F83B00C6840
:100D4000002C00F0D78000F1200241F20045019212
:100D500000F13847C4F6000506224FEAB726A8423C
:100D600008BF0522052E38BF4FEAB72200254FF0F5
:100D7000010A00274FF0000800920AE00C6808F111
:100D8000010834FA08F207F1020705F1040500F042
:100D9000B1800AFA08FE14EA0E0CEFD0D1F80490E4
:100DA000B9F1120F00F29E800AFA09F414F0061F3E
:100DB00000F0988084680322CE6802FA07FB24EAD8
:100DC0000B04BE403443846046684FEA191226EA99
:100DD0000E0602FA08F24FEA480A6FEA0B0B32439A
:100DE0004260C2688E6802EA0B0206FA0AF63243D3
:100DF00049F01006122EC26015D16FF00302019C5B
:100E000002EA580205F01C030F2654F802E006FA25
:100E100003F90E692EEA090E06FA03F343EA0E03FC
:100E2000A350D1F80490026809F0030302EA0B0210
:100E300003FA0AF31A435FEAC9034FF0010A02609A
:100E40009CD541F26003C4F202031A6840F2004EDE
:100E500042F001021A601A68C4F2010E02F00102A7
:100E60000292029A28F003024FF608497244CFF624
:100E7000FF7952F8093005F00C060F24B440A34363
:100E8000009C04FA06F6334342F80930DEF80020ED
:100E90004B6842EA0C06DC0358BF22EA0C06CEF887
:100EA0000060DEF804209C0342EA0C0658BF22EAE8
:100EB0000C06CEF80460DEF80820DC0242EA0C06DC
:100EC00040F20C4458BF22EA0C06CEF80860C4F287
:100ED000010422689B0242EA0C0658BF22EA0C0673
:100EE00026604BE7032202FA07F46FEA040BBA46C6
:100EF00077E700BF03B0BDE8F08F0000006908404D
:100F000018BF0120704700001823002A08BF2823BB
:100F1000C150704740F2B810C2F20000006870473C
:100F200040F2000040F2B811C2F20000C2F200012B
:100F300040680A68104408607047000080B50320CC
:100F400000F08CF80F2000F009F800281CBF0120E9
:100F500080BD00F02BF8002080BD0000B0B540F24D
:100F60000005C2F200056968F1B1044640F20C00C8
:100F7000C2F200004FF47A720068B2FBF1F1B0FBEC
:100F8000F1F000F09DFE01460F2C4FF001000AD851
:100F9000002918BFB0BD4FF0FF302146002200F0FD
:100FA00031F800202C60B0BD0120B0BD82B041F20C
:100FB0005800C4F20200816841F00101816081683B
:100FC00001F0010101910199016841F08051016036
:100FD000006800F080500090009802B000F0D6B891
:100FE000002848BF704700F01F01012202FA01F1FA
:100FF0001C2202EAD0004EF20012CEF20002815012
:101000007047000010B54EF60C5CCEF2000CDCF818
:101010000030C3F3022E8EF00704042C28BF0424F2
:10102000BEF103034FF0FF3E0EFA04F438BF002375
:10103000A14399400EFA03F39A43114300F00F02C3
:1010400000F160430901043A03F564436244002857
:1010500048BF02F10C03197010BD00004EF60C5190
:10106000CEF200010A684FF6FF031A4060F30A222D
:1010700042F0806040F0FD700860704747F2140154
:10108000C4F2000151F8142CB0F5007F3CD00028C8
:1010900074D1C86E02F4C06220F48070B2F5806F23
:1010A000C8662FD151F8140C012262F34A2041F88E
:1010B000140C40F20C00C2F20000006832225043CF
:1010C0004DF68362C4F21B32A0FB0202900C00BFFB
:1010D0000A68520511D5421C0FD00A6852050CD57A
:1010E00058B10A68520508D5012806D00A68520589
:1010F00003D50228A0F10400EAD10868400544BFE6
:101100000320704700207047C86E02F4C06240F4AC
:101110008070B2F5806FC866F4D151F8140C0122CA
:1011200062F34A2041F8140C40F20C00C2F20000B5
:101130000068322250434DF68362C4F21B32A0FB9A
:101140000202900C0A68520511D5421C0FD00A68A1
:1011500052050CD558B10A68520508D5012806D0A9
:101160000A68520503D50228A0F10400EAD10868F4
:10117000400544BF03207047C4E700BF022060F36E
:101180004A2241F8142C00207047000047F2080062
:10119000C4F20000016841F4804101607047000022
:1011A0002DE9F04182B00446807841F288060007BC
:1011B000C4F2020602D400202FE000BF56F8300C23
:1011C0005FEAC0080BD456F8300C40F0805046F867
:1011D000300C56F8300C00F080500190019847F226
:1011E0000007C4F20007386840F480703860FFF7E9
:1011F00091FE05463868C00500F1D680FFF78AFEEB
:10120000401B0228F6D90320B8F1000F05D456F888
:10121000301C21F0805146F8301C2168CA0713D1D8
:101220008A0719D44A071FD40A0725D48A062BD463
:101230004A0631D40A0637D4CA053DD48A0543D4B8
:101240004A0549D457E000BF3268636822F00302C0
:101250001A4332608A07E5D53268A36822F00C028F
:101260001A4332604A07DFD53268E36822F0300261
:101270001A4332600A07D9D53268236922F0C002C6
:101280001A4332608A06D3D53268636922F4406219
:101290001A4332604A06CDD53268A36922F440521F
:1012A0001A4332600A06C7D53268E36922F4404225
:1012B0001A433260CA05C1D53268236A22F440322B
:1012C0001A4332608A05BBD53268636A22F4402231
:1012D0001A4332604A050ED53268A36A22F44012DE
:1012E0001A43B3F5801F326005D156F87C2C42F4C6
:1012F000801246F87C2C0A050ED53268E36A22F487
:1013000040021A43B3F5800F326005D156F87C2CA9
:1013100042F4801246F87C2CCA040ED53268236B46
:1013200022F040721A43B3F1807F326005D156F843
:101330007C2C42F4801246F87C2C8A040ED532684C
:10134000636B22F040621A43B3F1006F326005D143
:1013500056F87C2C42F4801246F87C2C4A040ED5B8
:101360003268A36B22F040621A43B3F1006F32601F
:1013700005D156F87C2C42F4801246F87C2C0904E6
:101380000ED53168E26B21F040511143B2F1805F1C
:10139000316005D156F87C1C41F4803146F87C1C44
:1013A00002B0BDE8F08100BFB06810F4407010D00A
:1013B000216C88420BD0B068B16820F4407041F4D1
:1013C0008031B160B16821F48031B160B060C00794
:1013D0000CD1B068216C20F440700843B06000204C
:1013E000B8F1000F3FF519AF11E700BFFFF792FD0D
:1013F000054641F2883700BFB0688007E9D4FFF79F
:1014000089FD401BB842F7D9FDE600002DE9F04701
:10141000002863D042F2000AC4F2020A0446DAF855
:1014200000000D4600F00F0081420CD9DAF80000F0
:1014300020F00F002843CAF80000DAF8000000F09E
:101440000F00A8424AD1216841F20808C807C4F237
:10145000020803D1880740F1D080B5E0606858F8F1
:10146000082C022838D003283CD1920136D5D8F870
:101470000420D8F8043042F20046C3F3031302F00C
:101480000302D8F804700133C0F2F406032A04BF43
:1014900043F20066C0F26E16B6FBF3F2D8F80430E1
:1014A000C7F306277A43C3F34163022707EB4303DD
:1014B000B2FBF3F24BF20043C0F2C4439A4259D953
:1014C000D8F8002012F0F00F49D0890752D5A16852
:1014D00000294FD143E000BF910305D40120BDE8AE
:1014E000F08700BF5105F9D5D8F8001001F00C01C4
:1014F00004293FD0D8F8001001F00C01082939D098
:10150000D8F8001001F00C010C2933D1D8F80410E0
:10151000D8F8042042F20047C2F3031201F003019D
:10152000D8F804300132C0F2F407032904BF43F2B3
:101530000067C0F26E17B7FBF2F1D8F80420C3F3CE
:1015400006235943C2F34162022303EB4202B1FB7B
:10155000F2F14BF20042C0F2C44291420AD9D8F8EB
:101560000010082262F307114FF00109C8F80010BB
:1015700002E000BF4FF00009D8F8001021F003018D
:101580000843C8F80000FFF7C5FC064641F288375B
:10159000D8F80000616800F00C00B0EB810F07D0B4
:1015A000FFF7B8FC801BB842F2D90320BDE8F087F2
:1015B0002168880708D4B9F1000F1ED0D8F80000C0
:1015C00020F0F00017E000BF480705D5D8F800006C
:1015D00040F4E060C8F80000080706D5D8F800001D
:1015E000072262F30D20C8F80000D8F80000A268B6
:1015F00020F0F0001043C8F80000DAF8000000F016
:101600000F0085421BD2DAF8000020F00F002843BB
:10161000CAF80000FFF77EFC064641F2883700BF9B
:10162000DAF8000000F00F00A84207D0FFF772FCC4
:10163000801BB842F4D90320BDE8F0872168480731
:1016400007D5D8F80000E26820F4E0601043C8F83D
:101650000000080708D5D8F80000216920F4605080
:1016600040EAC100C8F80000D8F8000042F200418A
:10167000C0F2F40100F00C00042808462DD0D8F880
:10168000000000F00C00082843F20060C0F26E1069
:1016900023D0D8F8002002F00C020C2A1CD1D8F874
:1016A0000420D8F8043002F00302C3F30313D8F87F
:1016B00004700133032A08BF0146B1FBF3F0D8F8E8
:1016C0000410C7F30627C1F341610222784302EBFD
:1016D0004101B0FBF1F000E00020D8F8001046F224
:1016E0002802C1F30311C0F60002515C40F20C0263
:1016F00001F01F0120FA01F140F20000C2F20000E7
:101700000068C2F200021160BDE8F047FFF726BC96
:1017100040F20C0041F20801C2F20000C4F20201E2
:101720000068096846F23802C1F30221C0F60002DF
:10173000515C01F01F01C8407047000040F20C00EE
:1017400041F20801C2F20000C4F202010068096817
:1017500046F23802C1F3C221C0F60002515C01F02A
:101760001F01C8407047000041F20C01C4F20201A1
:1017700051F8040C42F20042C0F2F40200F00C00F6
:101780000428104608BF704751F8040C00F00C0004
:10179000082843F20060C0F26E1025D051F8043CD6
:1017A00003F00C030C2B1CBF0020704780B5D1F850
:1017B00000C00B680CF0030CC3F3031E0B680EF1A2
:1017C000010EBCF1030F08BF02460968B2FBFEF030
:1017D000C3F30623C1F341610222584302EB4101E6
:1017E000B0FBF1F0BDE8804070470000002804BF66
:1017F000012070472DE9F04182B00446007841F2A3
:101800000006C007C4F202061ED1207880073DD42E
:101810002078000764D42078400700F18780207882
:10182000800600F1D980E069002800F0C181B1682C
:1018300001F00C010C2940F02F81012840F080813B
:10184000012002B0BDE8F081B06800F00C01F06842
:10185000082961D0032281F00C0122EA000008442B
:10186000B0FA80F0400957D161683068B1F5803F27
:1018700007D0B1F5A02F40F0E18040F48020306027
:10188000306840F480303060E2E000BFB068F1685A
:1018900000F00C00042871D001F0030180F00C006E
:1018A00081F002010844B0FA80F0400966D1E16895
:1018B0003068002900F0DE8040F480703060FFF76F
:1018C00029FB05463068400500F1FC80FFF722FB4C
:1018D000401B0228F6D9032002B0BDE8F08100BF0A
:1018E0006169D6F89400002900F0928040F0010070
:1018F000C6F89400FFF70EFB054600BFD6F894002B
:1019000080073FF588AFFFF705FB401B0228F5D99C
:10191000032002B0BDE8F081306880037FF575AF29
:10192000606800287FF471AF3EE000BFB06D5FEAF1
:10193000C00808D4B06D40F08050B065B06D00F0C4
:1019400080500190019847F20007C4F20007386800
:10195000C0052DD4386840F480703860FFF7DAFA9B
:10196000054600BF3868C00522D4FFF7D3FA401BF4
:101970000228F7D9032002B0BDE8F08130684005A5
:1019800001D5E06880B17068216920F0FE4040EA2E
:101990000160706040F20000C2F200000068FFF7D2
:1019A000DDFA00283FF434AF012002B0BDE8F08139
:1019B000A168D6F89000012908D0052940F0A08040
:1019C00040F00400C6F89000D6F8900040F0010006
:1019D000C6F89000A0E000BFA169D6F898000029E1
:1019E00078D040F00100C6F89800FFF793FA05465A
:1019F000D6F8980080073FF516AFFFF78BFA401B2B
:101A000002284FF00300F3D902B0BDE8F08100BF17
:101A100020F00100C6F89400FFF77CFA054600BFED
:101A2000D6F8940080077FF5F6AEFFF773FA401BF7
:101A30000228F5D9032002B0BDE8F08120F48030FF
:101A400030603068002920F48020306000F0CE80C3
:101A5000FFF760FA054600BF306880033FF5D5AE5A
:101A6000FFF758FA401B6428F6D9032002B0BDE8FE
:101A7000F08100BF20F480703060FFF74BFA05461C
:101A8000306840057FF5C4AEFFF744FA401B0228DA
:101A90004FF00300F4D9B7E73168022821F08071D4
:101AA000316040F08980FFF735FA054630688001E3
:101AB00040F1C880FFF72EFA401B02284FF00300C8
:101AC000F4D9A1E77068216920F0FE4040EA016086
:101AD00070609DE620F00100C6F89800FFF71AFA42
:101AE000054600BFD6F8980080077FF59CAEFFF74B
:101AF00011FA401B02284FF00300F3D984E700BF1E
:101B000020F00100C6F89000D6F89000002920F0DF
:101B10000400C6F8900079D0FFF7FCF9054641F2C1
:101B2000883700BFD6F89000800700F18180FFF76A
:101B3000F1F9401BB842F5D9032002B0BDE8F081AD
:101B4000F068216A00F003028A427FF42DAF626AD6
:101B50006FF00F0300F0F00103EB021291427FF4EB
:101B600023AFA16A00F4FE42B2EB012F7FF41CAF59
:101B7000E16A00F07842B2EBC16F7FF415AF226BDF
:101B80000023CFF6E07303EA025200F4C001A2F58D
:101B9000001291427FF408AF616B4FF07E4202EA7F
:101BA000016100F0C06001F17E4188427FF4FCAE2B
:101BB000002002B0BDE8F081F0684FF6FF7120F020
:101BC0000300F060F068CFF6EE610840F060FFF7C8
:101BD000A1F9044630688001EAD5FFF79BF9001BA4
:101BE00002284FF00300F5D90EE700BFFFF792F986
:101BF000054600BF306880037FF507AEFFF78AF91E
:101C0000401B64284FF00300F4D9FDE6FFF782F98A
:101C1000054641F2883700BFD6F89000800707D507
:101C2000FFF778F9401BB8424FF00300F4D9EBE618
:101C3000B8F1000F3FF5F3ADB06D20F08050B06506
:101C4000EDE500BFF06848F20C01C0F29F1104F10D
:101C5000200700EA010C8ECF6FF00F00D4E90C547E
:101C600000EB02100022CFF6E07241EA0C0102EA1A
:101C700005520843A2F500124FF07E4540EA0320CA
:101C800005EA0465104305F17E4540EAC760284334
:101C9000F060306840F080703060F06840F0807034
:101CA000F060FFF737F90446306880013FF580AFF8
:101CB000FFF730F9001B02284FF00300F4D9A3E628
:101CC000411E0020B0EB116F1CBF012070474EF287
:101CD0001002CEF2000251604EF62351CEF2000106
:101CE000F0230B70072190601160704790F83C2042
:101CF000012A4FF002024AD070B580F83D200268F8
:101D000043F2004C54689368C4F2010C42F6004E52
:101D10006245C4F2010E01D0724503D14D6824F42E
:101D200070042C434FF68F75CFF6FF550E682C408C
:101D300042F6FF35C4F201053443AA4254600FDC79
:101D4000B2F1804F16D040F20046C4F20006B24213
:101D500010D040F60006C4F20006B2420AD00EE0EF
:101D6000724507D044F20006C4F20106B24201D027
:101D7000624504D1896823F08003194391600121F1
:101D8000002280F83D1080F83C20BDE870401046ED
:101D90007047000090F83C30012B04BF02207047D0
:101DA0004FEAB202052A00F2CD812DE9F041DFE8C9
:101DB00012F0070035018D00E1005100870100BFDE
:101DC00003681A6AA3F1804622F001021A621D6AB2
:101DD0001A465C6852F818CF8F68A6F59636D1F887
:101DE00000E025F002054FEAB626072E45EA070572
:101DF0000AD80127B74017F0E50F1FBFCF6825F0BD
:101E00000C0527F004073D43072E0BD8012707FADE
:101E100006F616F0E50F1FBFD1E9056724F44074FC
:101E200034433C434FF68C76CFF6FE760CEA060739
:101E300047EA0E075C609F614F6809695F631D6236
:101E40009F6947F008079F619F6927F004079F611A
:101E500073E100BF03681A6AA3F1804722F480325D
:101E60001A621A46A7F59637D3F820805D6852F8B3
:101E700050EFD1F800C08E684FEAB727072F09D876
:101E80000124BC4014F0E50F1EBF4C6925F48035D9
:101E900045EA042528F4003444EA06444FF68C76DB
:101EA000CFF6FE7603360EEA060747EA0C075D60BA
:101EB0001F654F6809699F641C621F6D47F0080722
:101EC0001F651F6D27F004071F6536E1036843F2A5
:101ED00000461A6AC4F2010622F480721A621D6A70
:101EE0001A46D3F804C052F81CEFB3428E68D1F8FA
:101EF000008025F4007545EA062505D042F6004627
:101F0000C4F20106B34207D1CE6840F2FF47360261
:101F100025F44065BE433543A3F18046A6F59636C9
:101F20004FEAB626072E0CD8012707FA06F616F058
:101F3000E50F1FBFD1E905672CF44054374344EA4D
:101F4000071C4FF68C74CFF6FE740EEA040747EABE
:101F50000807C3F804C0DF614F680969DF631D62C9
:101F6000DF6947F00807DF61DF6927F00407DF61F9
:101F7000E3E000BF036843F200461A6AC4F20106B8
:101F800022F480521A621D6A1A46D3F804C052F82D
:101F90001C8FB3428E68D1F800E025F4005545EA65
:101FA000063505D042F60046C4F20106B34207D119
:101FB000CE6844F6FF77360325F44045BE433543EB
:101FC000A3F18046A6F596364FEAB626072E0CD822
:101FD000012707FA06F616F0E50F1FBFD1E90567DE
:101FE0002CF44044374344EA871C48F6FF44CFF6BC
:101FF000FF6404EA080444EA0E27C3F804C0DF6162
:102000004F6809691F641D62DF6947F40067DF617B
:10201000DF6927F48067DF618EE000BF036843F269
:1020200000461A6AC4F2010622F010021A621D6A02
:102030001A465C6852F818CFB3428E68D1F800E0B7
:1020400025F0200545EA061505D042F60046C4F203
:102050000106B34207D1CE686FF0400725F0C005F6
:1020600007EA06163543A3F18046A6F596364FEAF1
:10207000B626072E0CD8012707FA06F616F0E50F4C
:102080001FBFD1E9056724F440643E4344EA860457
:1020900048F6FF46CFF6FF660CEA060747EA0E272A
:1020A0005C609F614F6809699F631D629F6947F487
:1020B00000679F619F6927F480679F613CE000BFD4
:1020C00003681A6AA3F1804722F480121A621A4642
:1020D000A7F59637D3F820805D6852F850EFD1F815
:1020E00000C08E684FEAB727072F09D80124BC40EB
:1020F00014F0E50F1EBF4C6925F4802545EA8425C0
:1021000028F4001444EA065448F6FF46CFF6FF666A
:1021100006F540760EEA060747EA0C275D601F6564
:102120004F680969DF641C621F6D47F400671F6513
:102130001F6D27F480671F6509021368194311603A
:10214000BDE8F041002180F83C10002070470000FD
:10215000002804BF0120704710B5044690F83D00E8
:1021600028B9002084F83C00204600F023F8022023
:1021700084F83D002068211D03F076FA012084F8E0
:10218000480084F83E0084F83F0084F8400084F85A
:10219000410084F8420084F8430084F8440084F845
:1021A000450084F8460084F8470084F83D0000208C
:1021B00010BD00000068B0F1804F18BF704781B0BB
:1021C00041F25800C4F20200016841F001010160CF
:1021D000006800F001000090009801B07047000016
:1021E00080B5D9B10B1F4FEAB30E43224FF03F0C1D
:1021F000BEF1040F38BF0CEBB302825C012A1CBF96
:10220000012080BDBEF1030F1ED8DFE80EF00319D8
:10221000111500BF022280F83F2018E090F83E2000
:10222000012A1CBF012080BD022280F83E200EE062
:10223000022280F841200AE0022280F8422006E0D3
:10224000022280F8402002E0022280F84320026847
:1022500001F01F010120136A00FA01F18B431362A0
:10226000136A0B43A2F18041A1F596314FEAB121E7
:102270000629136244D8884010F0650F40D0506C96
:1022800042F6FF31C4F2010140F400408A4250643A
:1022900010DCB2F1804F1FD040F20040C4F20000C9
:1022A000824219D040F60000C4F20000824213D0EE
:1022B0001FE000BF42F60040C4F2010082420BD092
:1022C00044F20000C4F20100824205D043F2004013
:1022D000C4F2010082420CD190680721C0F20101D2
:1022E000014006294FF0000008D0B1F5803F08BF3B
:1022F00080BD106840F001001060002080BD00BF6C
:1023000042F6FF30C4F201008242C2DD43F6FF70A4
:10231000C4F20100824207DC42F60040C4F2010030
:102320008242D3D1D8E700BF44F20000C4F20100DA
:102330008242D1D044F60000C4F20100824202BFC2
:10234000506C40F400405064D3E7000090F87C10DB
:10235000012904BF022070472421C0F880100168C1
:102360000A680B6822F0005223F001030B6000237F
:1023700043660A602021C0F8801080F87C3000207D
:10238000704700007047000090F87C20012A04BFCD
:1023900002207047B0B52422C0F880200268D0F82F
:1023A00064E0D2F800C01368BEF1000F23F001030F
:1023B0001360936823F0606341EA0301916019D0D0
:1023C0009368916847F2382E490FC0F6000E47F225
:1023D00040251EF80140C0F60005695CC3F3426366
:1023E000E400B4FBF1F11EF80340EB5CE500B5FB43
:1023F000F3F301E001210123A0F86A102021A0F8E5
:102400006830C2F800C0C0F88010002180F87C104D
:102410000020B0BD90F87C20012A04BF0220704744
:10242000B0B52422C0F880200268D0F864E0D2F869
:1024300000C01368BEF1000F23F00103136093681E
:1024400023F0604341EA0301916019D093689168D9
:1024500047F2382E490FC0F6000E47F240251EF80D
:102460000140C0F60005695CC3F34263E400B4FBBD
:10247000F1F11EF80340EB5CE500B5FBF3F301E07E
:1024800001210123A0F86A102021A0F86830C2F8C9
:1024900000C0C0F88010002180F87C100020B0BD82
:1024A00070470000704700007047000070B5016879
:1024B00040F62F02CB690E688C681A40202A0DD195
:1024C00006F0200204F08055521918D0C16E002980
:1024D00000F0C180BDE87040084700BF40F60F0221
:1024E00013420CD00122C1F2000204EA020C40F2B5
:1024F0002012C0F20042324012EB0C0226D1DA0266
:102500000AD514F4800207D04FF480120A62BDE8A5
:102510007040FFF7C7BF00BF1A0605D506F080025E
:1025200004F40005521925D15A0619D516F04002B7
:1025300016D00A6822F040020A602021C0F88010FC
:1025400000210167BDE8704000F054BADA0718BFF7
:1025500016F480721ED19A0704F0010E26D430E0E2
:1025600019020DD516F080410AD0BDE87040FFF782
:1025700097BF00BF016F00296DD0BDE870400847CC
:10258000D90168D5B6F1FF3FC8BF70BDBDE8704046
:10259000FFF7F8BE01220A62D0F8882042F001025B
:1025A000C0F888209A0704F0010E0AD5BEF1000F8A
:1025B00007D002220A62D0F8882042F00402C0F854
:1025C00088205A070AD5BEF1000F07D004220A62FC
:1025D000D0F8882042F00202C0F888201A070CD5F3
:1025E00006F0200252EA0C0207D008220A62D0F854
:1025F000882042F00802C0F888201A050BD516F092
:10260000806208D04FF400620A62D0F8882042F05D
:102610002002C0F88820D0F88820E2B19A060BD5B5
:1026200006F0200204F08053D21805D0C26E1AB111
:102630000446904721682046D0F888208B6802F035
:10264000280203F04003D21806D10446FFF72CFFFE
:102650000020C4F8880070BD0A684FF6FE7322F4AB
:1026600090720A608A68CEF6FF731A408A60202250
:10267000C0F884200022C2668A68520616D58A688D
:1026800022F040028A60816F81B145F62512C0F6C2
:102690000002044608468A63FEF7FAFA0028DAD0F8
:1026A000A06F816BBDE87040084700BFBDE8704077
:1026B000FFF7FABE10B5A8B10446D0F8800028B9DB
:1026C000002084F87C00204600F026F82420C4F87E
:1026D00080002068016821F001010160204603F0BC
:1026E00071FA08B1012010BDA06A10B1204603F0B4
:1026F0004DF82168486820F490404860886820F0D0
:102700002A008860086840F0010220460A60BDE89F
:10271000104003F0AFB80000B0B598B0044602A86E
:10272000002508303C211795CDE91555CDE9135505
:10273000FDF794FF206843F60001C4F201018842CE
:1027400002D018B0B0BD00BF0120CDE9020502A83B
:10275000FEF726FD002818BFFEF794FA41F24C0060
:10276000C4F20200416941F480414161416901F4D0
:10277000804101910199016841F004010160006804
:1027800013A900F00400019001983020139002205A
:1027900014900020CDE915000720179040F60000A6
:1027A000C4F60000FEF7C8FA252000210022FEF73B
:1027B00029FC2520FEF714FC18B0B0BDD0F88430F9
:1027C000202B0BD100294FF0010318BF002A01D1A3
:1027D0001846704790F87C30012B01D102207047D9
:1027E00010B58165A0F85C20A0F85E20D0F808E064
:1027F000BEF1000F0ED0BEF1805F07D0BEF5805F46
:102800000ED1036953B940F2FF130AE003691BB10B
:102810003F2306E003690BB17F2302E0FF2300E0C2
:102820000023A0F860300023C0F888302223C0F8CD
:102830008430D0F800C0416E634653F8084FB1F1C0
:10284000005F44F001041C6003D1B0F868108A42B4
:1028500010D2BEF5805F01D1016949B345F68121EF
:10286000C0F60001C166002180F87C104FF4907022
:10287000634614E0BEF5805F01D10169F1B145F610
:10288000DD21C0F60001C166002180F87C10DCF873
:10289000000040F48070CCF800004FF080501968C0
:1028A000084318600023BDE810401846704700BF79
:1028B00045F67D11C0F60001D4E700BF45F6D911F9
:1028C000C0F60001DFE70000006843F60001C4F233
:1028D0000101884218BF7047B0B540F27004C2F2DF
:1028E000000422786078531CD9B222441229237044
:1028F000107201D80D2806D104F1080000254554B6
:10290000FEF78CF8257040F22C10611CC2F200001A
:102910000122BDE8B040FFF751BF00002DE9F041B2
:1029200082B00446D0F8800020280DD10F4600293F
:102930004FF0010018BF002A02D102B0BDE8F081BB
:1029400094F87C00012803D1022002B0BDE8F08198
:10295000012084F87C000020C4F8880021201D4656
:10296000C4F880001646FEF7D5FAA4F85460A4F81F
:102970005660A1688046B1F5805F01D12069B8B387
:102980003E460027002084F87C0008E016F8010B82
:1029900021688862B4F856000138A4F85600B4F8EB
:1029A000560088B12046802100224346009503F05E
:1029B0004DFA88B9002EE9D137F8020B21686FF380
:1029C0005F2088620026E5E720464021002243463A
:1029D000009503F03BFA18B1032002B0BDE8F08186
:1029E0002020C4F88000002002B0BDE8F08100BFC4
:1029F0000026C7E770470000FEE7000040F2D40061
:102A0000C2F2000000214160704700002DE9F04F44
:102A100081B040F2B81040F2D405C2F20000C2F218
:102A2000000501686A68891A14294DD3006840F2CC
:102A30000044C4F60004686020460121FEF75EFAF7
:102A40000746B0FA80F04FEA501920460221FEF7FF
:102A500055FA064620460421FEF750FA83464FF009
:102A600090400121FEF74AFA2978804647EA0100A2
:102A70000006B6FA86F402D10120FDF76BFF6878F4
:102A8000BBFA8BF730434FEA541A000685F80090E2
:102A900002D10220FDF75EFFA878B8FA88F440EA78
:102AA0000B007E09000685F801A002D10320FDF786
:102AB00051FFE878640940EA08000006AE7002D1D0
:102AC0000420FDF747FFEC7001B0BDE8F08F000077
:102AD00040F21841C4F600010A6942F400720A612A
:102AE0000A6942F480720A610A6842F020020A60B0
:102AF0002022C1F8FC230A6942F020020A6100BFCB
:102B000000BF00BF0A6842F020020A600A6842F46F
:102B100080720A600022C1F8FC230B6943F0200395
:102B20000B6100BF00BF00BF0B6843F020030B60C8
:102B30000B6843F480730B600B6943F400730B6103
:102B40000B6943F480730B610B6843F020030B6047
:102B50002123C1F8FC330B6943F020030B6100BF54
:102B600000BF00BF0B6843F020030B600B6843F409
:102B700080730B60C1F8FC230A6942F020020A61ED
:102B800000BF00BF00BF0A6842F020020A600A6866
:102B900042F480720A600A6942F400720A610A69AA
:102BA00042F480720A610A6842F020020A6022221E
:102BB000C1F8FC230A6942F020020A6100BF00BF8D
:102BC00000BF0A6842F020020A600A6842F480727C
:102BD0000A6000BF00BF00BF0A6842F400720A60CA
:102BE0004FF496320B69053A43F400730B610B689E
:102BF00043F480730B600B6843F020030B60C1F853
:102C0000FC030B6943F020030B6100BF00BF00BF52
:102C10000B6843F020030B600B6843F480730B6078
:102C200000BF00BF00BF0B6843F400730B600B696B
:102C300043F400730B610B6843F480730B600B6803
:102C400043F020030B60C1F8FC030B6943F0200341
:102C50000B6100BF00BF00BF0B6843F020030B6097
:102C60000B6843F480730B6000BF00BF00BF0B68AC
:102C700043F400730B600B6943F400730B610B6842
:102C800043F480730B600B6843F020030B60C1F8C2
:102C9000FC030B6943F020030B6100BF00BF00BFC2
:102CA0000B6843F020030B600B6843F480730B60E8
:102CB00000BF00BF00BF0B6843F400730B600B69DB
:102CC00043F400730B610B6843F480730B600B6873
:102CD00043F020030B60C1F8FC030B6943F02003B1
:102CE0000B6100BF00BF00BF0B6843F020030B6007
:102CF0000B6843F480730B6000BF00BF00BF0B681C
:102D000043F400730B600B6943F400730B610B68B1
:102D100043F480730B600B6843F020030B60C1F831
:102D2000FC030B6943F020030B6100BF00BF00BF31
:102D30000B6843F020030B600B6843F480730B6057
:102D400000BF00BF00BF0B6843F400730B607FF44B
:102D500049AF70470A78002A08BF70472DE9F04153
:102D600046F2400804464D1C002740F23F16C0F6CC
:102D7000000800BFA2F12000C1B2490051FA80F062
:102D800008EB0012B1B2204600F00AF8EA5D22B169
:102D9000103E132F07F10107ECD3BDE8F041704757
:102DA0002DE9F04740F21843C4F600031F694FF0C5
:102DB000200C47F400771F611F694FF0210E47F484
:102DC00080771F611F6840F2080947F020071F60E5
:102DD000C3F8FCC31F6940F2DC0A47F020071F61FB
:102DE00000BF00BF00BF1F684FF0220847F0200758
:102DF0001F601F68C2F2000947F480771F60C3F8A4
:102E0000FC031F69C2F2000A47F020071F6100BFE0
:102E100000BF00BF1F6847F020071F601F6847F40E
:102E200080771F601F6947F400771F611F6947F4AF
:102E300080771F611F6847F020071F60C3F8FCE31D
:102E40001C6944F020041C6100BF00BF00BF1C6867
:102E500044F020041C601C6844F480741C60C3F8B7
:102E6000FC131C6944F020041C6100BF00BF00BFBC
:102E70001C6844F020041C601C6844F480741C60CE
:102E8000002400BF1D6945F400751D611D6945F4EE
:102E900080751D611D6845F020051D60C3F8FC8329
:102EA0001D6945F020051D6100BF00BF00BF1D6802
:102EB00045F020051D601D6845F480751D6000BF4C
:102EC00000BF00BF1D6845F400751D60002500BFF0
:102ED00032F81460EE40F607564608BF4E46368874
:102EE0001F6947F400771F611F6847F480771F60F0
:102EF0001F6847F020071F60C3F8FC631E6946F097
:102F000020061E6100BF00BF00BF1E6846F02006FD
:102F10001E601E6846F480761E6000BF00BF00BFC2
:102F20001E6846F400761E6032F81460EE40B60764
:102F3000564658BF4E4636881F6947F400771F61D2
:102F40001F6847F480771F601F6847F020071F60E5
:102F5000C3F8FC631E6946F020061E6100BF00BF77
:102F600000BF1E6846F020061E601E6846F480768C
:102F70001E6000BF00BF00BF1E6846F400761E60E2
:102F800032F81460EE407607564658BF4E463688F3
:102F90001F6947F400771F611F6847F480771F603F
:102FA0001F6847F020071F60C3F8FC631E6946F0E6
:102FB00020061E6100BF00BF00BF1E6846F020064D
:102FC0001E601E6846F480761E6000BF00BF00BF12
:102FD0001E6846F400761E6032F81460EE40360734
:102FE000564658BF4E4636881F69043547F4007769
:102FF0001F611F68102D47F480771F601F6847F01E
:1030000020071F60C3F8FC631E6946F020061E619E
:1030100000BF00BF00BF1E6846F020061E601E688D
:1030200046F480761E6000BF00BF00BF1E6846F4F5
:1030300000761E607FF44CAF1D69013045F40075C9
:103040001D611D69013445F480751D611D68182CD2
:1030500045F020051D60C3F8FCC31D6945F020053F
:103060001D6100BF00BF00BF1D6845F020051D6049
:103070001D6845F480751D60C5B2C3F8FC531D6919
:1030800045F020051D6100BF00BF00BF1D6845F071
:1030900020051D601D6845F480751D601D6945F49F
:1030A00000751D611D6945F480751D611D6845F041
:1030B00020051D60C3F8FCE31D6945F020051D6176
:1030C00000BF00BF00BF1D6845F020051D601D68E2
:1030D00045F480751D60C3F8FC131D6945F020059B
:1030E0001D6100BF00BF00BF1D6845F020051D60C9
:1030F0001D6845F480751D6008BFBDE8F087C1E616
:103100002DE9F04F8BB0002641F24C000596CDE939
:103110000366CDE90166C4F20200016840F2184579
:1031200041F0040101600168C4F6000501F00401EA
:1031300006910699016801AC41F001010160016846
:1031400040F6140901F001010691069901684FF05B
:10315000030841F0020101600068214600F002000E
:10316000069006984FF44870019001200290A5F156
:103170001800C4F600090127CDE90368FDF7DCFD5E
:103180004FF48070CDE901074FF090402146CDE922
:103190000368FDF7D1FD4FF6FF7005F57A740690D0
:1031A00006A920460A964FF6FF7BCDF82480CDE98C
:1031B0000776FDF7C1FD4FF6004ACFF6FF7A55F8C6
:1031C0000A0006A940F4807045F80A0028684FF606
:1031D000FF7740F408702860286940F40070286187
:1031E000286940F480702861286840F02000286039
:1031F000C9F80060286940F02000286100BF00BFC6
:1032000000BF286840F020002860286840F48070E3
:10321000286020460A96CDF818B0CDF82480CDE974
:103220000766FDF789FD4FF6104BCFF6FF7B55F88B
:103230000B0007A940F4807045F80B0000BF00BFE9
:1032400000BFD5F8F89355F80A0040F4807045F8AF
:103250000A00012081E8410106A920460A96069746
:10326000FDF76AFD286848F2302140F400702860BC
:1032700040F2DE00C2F20000A0F800900088884210
:1032800002D100F0DFF901E000F050FF28690027CB
:1032900040F40070286128694FF6FF7840F4807090
:1032A000286128684FF0030940F02000286040F6AC
:1032B0001400C4F600000760286906A940F0200049
:1032C000286100BF00BF00BF286840F020002860D0
:1032D000286840F48070286020460A97CDE9068768
:1032E000CDE90879FDF728FD55F80B0007A940F452
:1032F000807045F80B0000BF00BF00BFD5F8F86331
:1033000055F80A0040F4807045F80A00012081E871
:10331000810206A920460A97CDF81880FDF70CFD1A
:10332000286840F40070286040F2DE00C2F200001D
:1033300006800BB0BDE8F08F81B0ADF80200BDF89B
:10334000020040F20801C2F20001088001B070479B
:1033500081B0ADF80200BDF8020040F2DC01C2F21B
:103360000001088001B0704710B5C0434FF614410A
:1033700040F600440002CFF6FF71C4F6000460502E
:10338000204604210122FDF7BFFD20460421002232
:10339000BDE81040FDF7B8BD80B5FE20FFF7E4FFA3
:1033A000FD20FFF7E1FFFB20FFF7DEFFF720FFF72F
:1033B000DBFFEF20FFF7D8FFDF20FFF7D5FFBF20AF
:1033C000FFF7D2FF7F20BDE88040FFF7CDBF0000B0
:1033D0000120FFF7C9BF00000220FFF7C5BF0000B2
:1033E000012101FA00F0C043C0B2FFF7BDBF0000E9
:1033F000012101FA00F0C0B2FFF7B6BF2DE9F0439A
:1034000087B0002741F24C000697CDE90477CDE95B
:103410000277C4F20200016840F6000841F004019E
:1034200001600168C4F6000801F0040101910199EE
:103430000168012241F02001016001684FF47346E8
:1034400001F02001019101990168012541F001017C
:103450000160016801F0010101910199016841F0E9
:1034600002010160016801F0020101910199016806
:1034700041F00801016000684FF4734100F008005A
:10348000019001984046FDF73FFD08F58064204615
:10349000042101224FF00409FDF736FDCDE9026554
:1034A00002AE40463146CDE90477FDF745FC4FF0CA
:1034B00090403146CDE902570495FDF73DFC0720C9
:1034C000CDE90207A8F5806031460495FDF734FC8C
:1034D00020463146CDE90295CDE90477FDF72CFC75
:1034E00007B0BDE8F0830000B0B590B040F2E00056
:1034F0000024C2F200004FF080414FF0FF330894E7
:10350000CDE90544CDE903444F2280E81600C0E927
:1035100003348461FEF71CFE002818BFFDF7B2FBE0
:1035200040F2E000C2F2000007A907940994FEF7F8
:10353000DDFB002818BFFDF7A5FB40F2E00460208A
:10354000C2F2000400900025694620460422CDE91D
:1035500001550495FEF71EFC002818BFFDF792FBED
:1035600020680F95B0F1804FCDE90D550C950B9566
:1035700002D010B0B0BD00BF41F24C00C4F2020056
:10358000016841F00101016000680BA900F0010031
:103590000A900A980220CDE90B000020CDE90D0029
:1035A00001200F904FF09040FDF7C6FB10B0B0BD6A
:1035B00080B540F22C1043F60001C2F20000C4F2C4
:1035C000010100234FF00C0C4FF4165280E80E005E
:1035D000C0E90333C0E905C3C0E90733C0E90933D3
:1035E000FFF768F8002818BFFDF74CFB40F22C10DD
:1035F000C2F200000021FEF70DFF002818BFFDF702
:1036000041FB40F22C10C2F200000021FEF7BCFE8C
:10361000002818BFFDF736FB40F22C10C2F2000064
:10362000FEF794FE002808BF80BDBDE88040FDF78E
:1036300029BB0000FEE70000FEE700007047000025
:103640007047000040F21840C4F6000001690022F3
:1036500041F40071016101694FF0030C41F4807184
:103660000161016841F020010160C0F8FC2301699B
:1036700041F02001016100BF00BF00BF016841F0BF
:1036800020010160016841F4807101600121C0F8EE
:10369000FC13036943F02003036100BF00BF00BFB8
:1036A000036843F020030360036843F480730360FE
:1036B000036943F400730361036943F48073036196
:1036C000036843F020030360C0F8FC13036943F070
:1036D0002003036100BF00BF00BF036843F0200365
:1036E0000360036843F480730360C0F8FC2302693D
:1036F00042F02002026100BF00BF00BF026842F03A
:1037000020020260026842F480720260026942F4A0
:1037100000720261026942F480720261026842F042
:10372000200202601022C0F8FC23026942F020024D
:10373000026100BF00BF00BF026842F020020260C9
:10374000026842F48072026041F29072C0F8FC2379
:10375000026942F02002026100BF00BF00BF0268A0
:1037600042F020020260026842F480720260026944
:1037700042F400720261026942F4807202610268DE
:1037800042F0200202606022C0F8FC23026942F08D
:103790002002026100BF00BF00BF026842F02002A9
:1037A0000260026842F4807202604FF41C52C0F85A
:1037B000FC23026942F02002026100BF00BF00BF8B
:1037C000026842F020020260026842F480720260E5
:1037D000026942F400720261026942F4807202617D
:1037E000026842F0200202606122C0F8FC230269F4
:1037F00042F02002026100BF00BF00BF026842F039
:1038000020020260026842F480720260C0F8FC1379
:10381000016941F02001016100BF00BF00BF0168E4
:1038200041F020010160016841F48071016001698B
:1038300041F400710161016941F480710161016825
:1038400041F0200101604621C0F8FC13016941F0FC
:103850002001016100BF00BF00BF016841F02001ED
:103860000160016841F4807101600221C0F8FC131D
:10387000026942F02002026100BF00BF00BF02687F
:1038800042F020020260026842F480720260026923
:1038900042F400720261026942F4807202610268BD
:1038A00042F0200202601322C0F8FC23026942F0B9
:1038B0002002026100BF00BF00BF026842F0200288
:1038C0000260026842F48072026048F21002C0F89E
:1038D000FC23026942F02002026100BF00BF00BF6A
:1038E000026842F020020260026842F480720260C4
:1038F000026942F400720261026942F4807202615C
:10390000026842F0200202601222C0F8FC23026921
:1039100042F02002026100BF00BF00BF026842F017
:1039200020020260026842F48072026048F2FE02E5
:10393000C0F8FC23026942F02002026100BF00BF10
:1039400000BF026842F020020260026842F4807206
:103950000260026942F400720261026942F48072FC
:103960000261026842F020020260C0F8FC130169A3
:1039700041F02001016100BF00BF00BF016841F0BC
:1039800020010160016841F4807101604FF4A06181
:10399000C0F8FC13016941F02001016100BF00BFC4
:1039A00000BF016841F020010160016841F48071AD
:1039B0000160016941F400710161016941F48071A4
:1039C0000161016841F020010160C0F8FCC3026997
:1039D00042F02002026100BF00BF00BF026842F057
:1039E00020020260026842F48072026041F23002FA
:1039F000C0F8FC23026942F02002026100BF00BF50
:103A000000BF026842F020020260026842F4807245
:103A10000260026942F400720261026942F480723B
:103A20000261026842F0200202603022C0F8FC23EA
:103A3000026942F02002026100BF00BF00BF0268BD
:103A400042F020020260026842F48072026040F29A
:103A50000332C0F8FC23036943F02003036100BF75
:103A600000BF00BF036843F020030360036843F412
:103A700080730360036943F400730361036943F4D3
:103A800080730361036843F0200303603123C0F8AF
:103A9000FC33036943F02003036100BF00BF00BF94
:103AA000036843F020030360036843F480730360FA
:103AB000C0F8FC23036943F02003036100BF00BF8B
:103AC00000BF036843F020030360036843F480737E
:103AD0000360036943F400730361036943F4807373
:103AE0000361036843F0200303603223C0F8FC3312
:103AF000036943F02003036100BF00BF00BF0368F8
:103B000043F020030360036843F480730360C0F84C
:103B1000FC23036943F02003036100BF00BF00BF23
:103B2000036843F020030360036843F48073036079
:103B3000036943F400730361036943F48073036111
:103B4000036843F0200303603323C0F8FC330369A8
:103B500043F02003036100BF00BF00BF036843F0D0
:103B600020030360036843F4807303604FF44073E1
:103B7000C0F8FC33016941F02001016100BF00BFC2
:103B800000BF016841F020010160016841F48071CB
:103B90000160016941F400710161016941F48071C2
:103BA0000161016841F0200101603421C0F8FC137B
:103BB000016941F02001016100BF00BF00BF016841
:103BC00041F020010160016841F480710160C0F89A
:103BD000FCC3016941F02001016100BF00BF00BFCB
:103BE000016841F020010160016841F480710160C9
:103BF000016941F400710161016941F48071016161
:103C0000016841F0200101603521C0F8FC13016911
:103C100041F02001016100BF00BF00BF016841F019
:103C200020010160016841F480710160C0F8FC234B
:103C3000016941F02001016100BF00BF00BF0168C0
:103C400041F020010160016841F480710160016967
:103C500041F400710161016941F480710161016801
:103C600041F0200101603621C0F8FC13016941F0E8
:103C70002001016100BF00BF00BF016841F02001C9
:103C80000160016841F4807101601421C0F8FC13E7
:103C9000016941F02001016100BF00BF00BF016860
:103CA00041F020010160016841F480710160016907
:103CB00041F400710161016941F4807101610168A1
:103CC00041F0200101603721C0F8FC13016941F087
:103CD0002001016100BF00BF00BF016841F0200169
:103CE0000160016841F480710160C0F8FC23016942
:103CF00041F02001016100BF00BF00BF016841F039
:103D000020010160016841F480710160016941F4A2
:103D100000710161016941F480710161016841F044
:103D2000200101603821C0F8FC13016941F0200135
:103D3000016100BF00BF00BF016841F020010160C8
:103D4000016841F480710160C0F8FC23016941F011
:103D50002001016100BF00BF00BF016841F02001E8
:103D60000160016841F480710160016941F40071F2
:103D70000161016941F480710161016841F0200134
:103D800001603921C0F8FC13016941F02001016193
:103D900000BF00BF00BF016841F020010160016861
:103DA00041F480710160C0F8FC23016941F02001F9
:103DB000016100BF00BF00BF016841F02001016048
:103DC000016841F480710160016941F40071016191
:103DD000016941F480710161016841F020010160D5
:103DE0003A21C0F8FC13016941F02001016100BFD4
:103DF00000BF00BF016841F020010160016841F48B
:103E000080710160C0F8FC33016941F0200101615B
:103E100000BF00BF00BF016841F0200101600168E0
:103E200041F480710160016941F40071016101692F
:103E300041F480710161016841F0200101603B2182
:103E4000C0F8FC13016941F02001016100BF00BF0F
:103E500000BF016841F020010160016841F48071F8
:103E60000160C0F8FCC3016941F02001016100BF9D
:103E700000BF00BF016841F020010160016841F40A
:103E800080710160016941F400710161016941F4CF
:103E900080710161016841F0200101603C21C0F89E
:103EA000FC13016941F02001016100BF00BF00BFA8
:103EB000016841F020010160016841F480710160F6
:103EC000C0F8FC23016941F02001016100BF00BF7F
:103ED00000BF016841F020010160016841F4807178
:103EE0000160016941F400710161016941F480716F
:103EF0000161016841F0200101603D21C0F8FC131F
:103F0000016941F02001016100BF00BF00BF0168ED
:103F100041F020010160016841F4807101604FF4BB
:103F2000A051C0F8FC13016941F02001016100BFFC
:103F300000BF00BF016841F020010160016841F449
:103F400080710160016941F400710161016941F40E
:103F500080710161016841F0200101609221C0F887
:103F6000FC13016941F02001016100BF00BF00BFE7
:103F7000016841F020010160016841F48071016035
:103F80004FF40071C0F8FC13016941F02001016198
:103F900000BF00BF00BF016841F02001016001685F
:103FA00041F480710160016941F4007101610169AE
:103FB00041F480710161016841F0200101609321A9
:103FC000C0F8FC13016941F02001016100BF00BF8E
:103FD00000BF016841F020010160016841F4807177
:103FE0000160C0F8FC23016941F02001016100BFBC
:103FF00000BF00BF016841F020010160016841F489
:1040000080710160016941F400710161016941F44D
:1040100080710161016841F0200101609021C0F8C8
:10402000FC13016941F02001016100BF00BF00BF26
:10403000016841F020010160016841F48071016074
:1040400040F60D01C0F8FC13016941F02001016147
:1040500000BF00BF00BF016841F02001016001689E
:1040600041F480710160016941F4007101610169ED
:1040700041F480710161016841F020010160C0F8E4
:10408000FCC3016941F02001016100BF00BF00BF16
:10409000016841F020010160016841F48071016014
:1040A00041F21801C0F8FC13016941F020010161DF
:1040B00000BF00BF00BF016841F02001016001683E
:1040C00041F480710160016941F40071016101698D
:1040D00041F480710161016841F020010160072114
:1040E000C0F8FC13016941F02001016100BF00BF6D
:1040F00000BF016841F020010160016841F4807156
:10410000016040F27311C0F8FC13016941F0200115
:10411000016100BF00BF00BF016841F020010160E4
:10412000016841F480710160704700002DE9F04F93
:1041300081B040F21844C4F6000420694FF012091F
:1041400040F4007020612069002540F480702061F7
:104150002068112640F020002060E320C4F8FC0312
:1041600020694FF0130B40F02000206100BF00BF1A
:1041700000BF2068102740F02000206020684FF02A
:10418000070840F48070206043F20800C4F8FC0384
:10419000206940F02000206100BF00BF00BF206800
:1041A00040F020002060206840F48070206020698A
:1041B00040F400702061206940F480702061206824
:1041C00040F020002060E720C4F8FC03206940F0A4
:1041D0002000206100BF00BF00BF206840F0200029
:1041E0002060206840F480702060C4F8FC9320694F
:1041F00040F02000206100BF00BF00BF206840F0F9
:1042000020002060206840F480702060206940F425
:1042100000702061206940F480702061206840F0C7
:1042200020002060EF20C4F8FC03206940F020004B
:10423000206100BF00BF00BF206840F02000206068
:10424000206840F48070206041F23120C4F8FC0303
:10425000206940F02000206100BF00BF00BF20683F
:1042600040F020002060206840F4807020602069C9
:1042700040F400702061206940F480702061206863
:1042800040F0200020600120C4F8FC03206940F0C9
:104290002000206100BF00BF00BF206840F0200068
:1042A0002060206840F480702060C4F8FC532069CE
:1042B00040F02000206100BF00BF00BF206840F038
:1042C00020002060206840F480702060206940F465
:1042D00000702061206940F480702061206840F007
:1042E000200020600220C4F8FC03206940F0200078
:1042F000206100BF00BF00BF206840F020002060A8
:10430000206840F4807020604FF4E060C4F8FC0343
:10431000206940F02000206100BF00BF00BF20687E
:1043200040F020002060206840F480702060206908
:1043300040F400702061206940F4807020612068A2
:1043400040F0200020600320C4F8FC03206940F006
:104350002000206100BF00BF00BF206840F02000A7
:104360002060206840F48070206041F23000C4F882
:10437000FC03206940F02000206100BF00BF00BFA7
:10438000206840F020002060206840F480702060A9
:10439000206940F400702061206940F48070206141
:1043A000206840F0200020600420C4F8FC0320694D
:1043B00040F02000206100BF00BF00BF206840F037
:1043C00020002060206840F480702060C4F8FC5316
:1043D000206940F02000206100BF00BF00BF2068BE
:1043E00040F020002060206840F480702060206948
:1043F00040F400702061206940F4807020612068E2
:1044000040F0200020600820C4F8FC03206940F040
:104410002000206100BF00BF00BF206840F02000E6
:104420002060206840F48070206040F20720C4F8CB
:10443000FC03206940F02000206100BF00BF00BFE6
:10444000206840F020002060206840F480702060E8
:10445000206940F400702061206940F48070206180
:10446000206840F0200020600920C4F8FC03206987
:1044700040F02000206100BF00BF00BF206840F076
:1044800020002060206840F480702060C4F8FC5355
:10449000206940F02000206100BF00BF00BF2068FD
:1044A00040F020002060206840F480702060206987
:1044B00040F400702061206940F480702061206821
:1044C00040F0200020600A20C4F8FC03206940F07E
:1044D0002000206100BF00BF00BF206840F0200026
:1044E0002060206840F480702060C4F8FC5320698C
:1044F00040F02000206100BF00BF00BF206840F0F6
:1045000020002060206840F480702060206940F422
:1045100000702061206940F480702061206840F0C4
:10452000200020600C20C4F8FC03206940F020002B
:10453000206100BF00BF00BF206840F02000206065
:10454000206840F480702060C4F8FC53206940F07B
:104550002000206100BF00BF00BF206840F02000A5
:104560002060206840F480702060206940F4007072
:104570002061206940F480702061206840F02000B4
:1045800020600D20C4F8FC03206940F02000206169
:1045900000BF00BF00BF206840F0200020602068FE
:1045A00040F480702060C4F8FC53206940F0200083
:1045B000206100BF00BF00BF206840F020002060E5
:1045C000206840F480702060206940F40070206111
:1045D000206940F480702061206840F02000206055
:1045E0000F20C4F8FC03206940F02000206100BFC8
:1045F00000BF00BF206840F020002060206840F429
:1046000080702060C4F8FC53206940F020002061D5
:1046100000BF00BF00BF206840F02000206020687D
:1046200040F480702060206940F4007020612069AF
:1046300040F480702061206840F02000206010204D
:10464000C4F8FC03206940F02000206100BF00BFD7
:1046500000BF206840F020002060206840F4807097
:104660002060C4F8FC53206940F02000206100BFA6
:1046700000BF00BF206840F020002060206840F4A8
:1046800080702060206940F400702061206940F44F
:1046900080702061206840F020002060C4F8FC6336
:1046A000206940F02000206100BF00BF00BF2068EB
:1046B00040F020002060206840F4807020600720D7
:1046C000C4F8FC03206940F02000206100BF00BF57
:1046D00000BF206840F020002060206840F4807017
:1046E0002060206940F400702061206940F48070EF
:1046F0002061206840F020002060C4F8FC9320690D
:1047000040F02000206100BF00BF00BF206840F0E3
:1047100020002060206840F480702060C4F8FC53C2
:10472000206940F02000206100BF00BF00BF20686A
:1047300040F020002060206840F4807020602069F4
:1047400040F400702061206940F48070206120688E
:1047500040F020002060C4F8FCB3206940F0200045
:10476000206100BF00BF00BF206840F02000206033
:10477000206840F480702060C4F8FC53206940F049
:104780002000206100BF00BF00BF206840F0200073
:104790002060206840F480702060C820FCF7B8FAE0
:1047A00020694FF0320A40F400702061206940F423
:1047B00080702061206840F020002060C4F8FC7305
:1047C0002069102740F02000206100BF00BF00BF1B
:1047D000206840F020002060206840F48070206055
:1047E00041F29060C4F8FC03206940F02000206191
:1047F00000BF00BF00BF206840F02000206020689C
:1048000040F480702060206940F4007020612069CD
:1048100040F480702061206840F020002060C4F8DF
:10482000FC63206940F02000206100BF00BF00BF92
:10483000206840F020002060206840F480702060F4
:1048400040F22720C4F8FC03206940F020002061DA
:1048500000BF00BF00BF206840F02000206020683B
:1048600040F4807020603220FCF752FA206940F456
:1048700000702061206940F480702061206840F061
:1048800020002060C4F8FC93206940F020002061E3
:1048900000BF00BF00BF206840F0200020602068FB
:1048A00040F4807020601D20C4F8FC03206940F0B3
:1048B0002000206100BF00BF00BF206840F0200042
:1048C0002060206840F4807020603220FCF720FADD
:1048D000206940F400702061206940F480702061FC
:1048E000206840F020002060C4F8FCB3206940F04C
:1048F0002000206100BF00BF00BF206840F0200002
:104900002060206840F4807020604FF40060C4F89C
:10491000FC03206940F02000206100BF00BF00BF01
:10492000206840F020002060206840F48070206003
:10493000206940F400702061206940F4807020619B
:10494000206840F0200020602920C4F8FC03206982
:1049500040F02000206100BF00BF00BF206840F091
:1049600020002060206840F4807020601420C4F88B
:10497000FC03206940F02000206100BF00BF00BFA1
:10498000206840F020002060206840F480702060A3
:10499000206940F400702061206940F4807020613B
:1049A000206840F0200020602B20C4F8FC03206920
:1049B00040F02000206100BF00BF00BF206840F031
:1049C00020002060206840F4807020600B20C4F834
:1049D000FC03206940F02000206100BF00BF00BF41
:1049E000206840F020002060206840F48070206043
:1049F0003220FCF78DF92069032140F4007020611A
:104A00002069072240F480702061206840F0200077
:104A100020602020C4F8FC03206940F020002061C1
:104A200000BF00BF00BF206840F020002060206869
:104A300040F480702060C4F8FC53206940F02000EE
:104A4000206100BF00BF00BF206840F02000206050
:104A5000206840F480702060206940F4007020617C
:104A6000206940F480702061206840F020002060C0
:104A70002120C4F8FC03206940F02000206100BF21
:104A800000BF00BF206840F020002060206840F494
:104A900080702060C4F8FC53206940F02000206141
:104AA00000BF00BF00BF206840F0200020602068E9
:104AB00040F480702060206940F40070206120691B
:104AC00040F480702061206840F020002060302099
:104AD000C4F8FC03206940F02000206100BF00BF43
:104AE00000BF206840F020002060206840F4807003
:104AF0002060C4F8FC83206940F02000206100BFE2
:104B000000BF00BF206840F020002060206840F413
:104B100080702060206940F400702061206940F4BA
:104B200080702061206840F0200020603120C4F8AF
:104B3000FC03206940F02000206100BF00BF00BFDF
:104B4000206840F020002060206840F480702060E1
:104B500040F20770C4F8FC03206940F02000206197
:104B600000BF00BF00BF206840F020002060206828
:104B700040F480702060206940F40070206120695A
:104B800040F480702061206840F020002060C4F86C
:104B9000FCA3206940F02000206100BF00BF00BFDF
:104BA000206840F020002060206840F48070206081
:104BB0000620C4F8FC03206940F02000206100BFFB
:104BC00000BF00BF206840F020002060206840F453
:104BD00080702060206940F400702061206940F4FA
:104BE00080702061206840F0200020603520C4F8EB
:104BF000FC03206940F02000206100BF00BF00BF1F
:104C0000206840F020002060206840F48070206020
:104C100040F20470C4F8FC03206940F020002061D9
:104C200000BF00BF00BF206840F020002060206867
:104C300040F480702060206940F400702061206999
:104C400040F480702061206840F020002060362011
:104C5000C4F8FC03206940F02000206100BF00BFC1
:104C600000BF206840F020002060206840F4807081
:104C7000206041F60470C4F8FC03206940F0200075
:104C8000206100BF00BF00BF206840F0200020600E
:104C9000206840F480702060206940F4007020613A
:104CA000206940F480702061206840F0200020607E
:104CB0003720C4F8FC03206940F02000206100BFC9
:104CC00000BF00BF206840F020002060206840F452
:104CD000807020600420C4F8FC03206940F02000AC
:104CE000206100BF00BF00BF206840F020002060AE
:104CF000206840F480702060206940F400702061DA
:104D0000206940F480702061206840F0200020601D
:104D10003820C4F8FC03206940F02000206100BF67
:104D200000BF00BF206840F020002060206840F4F1
:104D300080702060C4F8FC53206940F0200020619E
:104D400000BF00BF00BF206840F020002060206846
:104D500040F480702060206940F400702061206978
:104D600040F480702061206840F0200020603920ED
:104D7000C4F8FC03206940F02000206100BF00BFA0
:104D800000BF206840F020002060206840F4807060
:104D9000206040F20670C4F8FC03206940F0200057
:104DA000206100BF00BF00BF206840F020002060ED
:104DB000206840F480702060206940F40070206119
:104DC000206940F480702061206840F0200020605D
:104DD0003C20C4F8FC03206940F02000206100BFA3
:104DE00000BF00BF206840F020002060206840F431
:104DF0008070206040F20170C4F8FC03206940F02C
:104E00002000206100BF00BF00BF206840F02000EC
:104E10002060206840F480702060206940F40070B9
:104E20002061206940F480702061206840F02000FB
:104E300020603D20C4F8FC03206940F02000206180
:104E400000BF00BF00BF206840F020002060206845
:104E500040F4807020600F20C4F8FC03206940F00B
:104E60002000206100BF00BF00BF206840F020008C
:104E70002060206840F480702060206940F4007059
:104E80002061206940F480702061206840F020009B
:104E900020605020C4F8FC03206940F0200020610D
:104EA00000BF00BF00BF206840F0200020602068E5
:104EB00040F480702060C4F8FC53206940F020006A
:104EC000206100BF00BF00BF206840F020002060CC
:104ED000206840F480702060206940F400702061F8
:104EE000206940F480702061206840F0200020603C
:104EF0005120C4F8FC03206940F02000206100BF6D
:104F000000BF00BF206840F020002060206840F40F
:104F100080702060EF20C4F8FC03206940F020007E
:104F2000206100BF00BF00BF206840F0200020606B
:104F3000206840F480702060206940F40070206197
:104F4000206940F480702061206840F020002060DB
:104F50005220C4F8FC03206940F02000206100BF0B
:104F600000BF00BF206840F020002060206840F4AF
:104F700080702060C4F8FC53206940F0200020615C
:104F800000BF00BF00BF206840F020002060206804
:104F900040F480702060206940F400702061206936
:104FA00040F480702061206840F020002060532091
:104FB000C4F8FC03206940F02000206100BF00BF5E
:104FC00000BF206840F020002060206840F480701E
:104FD000206040F23F10C4F8FC03206940F020003C
:104FE000206100BF00BF00BF206840F020002060AB
:104FF000206840F480702060206940F400702061D7
:10500000206940F480702061206840F0200020601A
:105010006020C4F8FC03206940F02000206100BF3C
:1050200000BF00BF206840F020002060206840F4EE
:10503000807020604FF41C50C4F8FC03206940F0DD
:105040002000206100BF00BF00BF206840F02000AA
:105050002060206840F480702060206940F4007077
:105060002061206940F480702061206840F02000B9
:1050700020606120C4F8FC03206940F0200020611A
:1050800000BF00BF00BF206840F020002060206803
:1050900040F4807020600120C4F8FC03206940F0D7
:1050A0002000206100BF00BF00BF206840F020004A
:1050B0002060206840F480702060206940F4007017
:1050C0002061206940F480702061206840F0200059
:1050D00020606A20C4F8FC03206940F020002061B1
:1050E00000BF00BF00BF206840F0200020602068A3
:1050F00040F480702060C4F8FC53206940F0200028
:10510000206100BF00BF00BF206840F02000206089
:10511000206840F480702060206940F400702061B5
:10512000206940F480702061206840F020002060F9
:105130008020C4F8FC03206940F02000206100BFFB
:1051400000BF00BF206840F020002060206840F4CD
:1051500080702060C4F8FC53206940F0200020617A
:1051600000BF00BF00BF206840F020002060206822
:1051700040F480702060206940F400702061206954
:1051800040F480702061206840F020002060812081
:10519000C4F8FC03206940F02000206100BF00BF7C
:1051A00000BF206840F020002060206840F480703C
:1051B0002060C4F8FC53206940F02000206100BF4B
:1051C00000BF00BF206840F020002060206840F44D
:1051D00080702060206940F400702061206940F4F4
:1051E00080702061206840F0200020608220C4F898
:1051F000FC03206940F02000206100BF00BF00BF19
:10520000206840F020002060206840F4807020601A
:10521000C4F8FC53206940F02000206100BF00BFAB
:1052200000BF206840F020002060206840F48070BB
:105230002060206940F400702061206940F4807093
:105240002061206840F0200020608320C4F8FC0327
:10525000206940F02000206100BF00BF00BF20682F
:1052600040F020002060206840F480702060C4F886
:10527000FC53206940F02000206100BF00BF00BF48
:10528000206840F020002060206840F4807020609A
:10529000206940F400702061206940F48070206132
:1052A000206840F0200020608420C4F8FC032069BE
:1052B00040F02000206100BF00BF00BF206840F028
:1052C00020002060206840F480702060C4F8FC5307
:1052D000206940F02000206100BF00BF00BF2068AF
:1052E00040F020002060206840F480702060206939
:1052F00040F400702061206940F4807020612068D3
:1053000040F0200020608520C4F8FC03206940F0B4
:105310002000206100BF00BF00BF206840F02000D7
:105320002060206840F480702060C4F8FC5320693D
:1053300040F02000206100BF00BF00BF206840F0A7
:1053400020002060206840F480702060206940F4D4
:1053500000702061206940F480702061206840F076
:10536000200020609020C4F8FC03206940F0200059
:10537000206100BF00BF00BF206840F02000206017
:10538000206840F480702060C4F8FC73206940F00D
:105390002000206100BF00BF00BF206840F0200057
:1053A0002060206840F480702060206940F4007024
:1053B0002061206940F480702061206840F0200066
:1053C00020609220C4F8FC03206940F02000206196
:1053D00000BF00BF00BF206840F0200020602068B0
:1053E00040F480702060C4F8FC53206940F0200035
:1053F000206100BF00BF00BF206840F02000206097
:10540000206840F480702060206940F400702061C2
:10541000206940F480702061206840F02000206006
:105420009320C4F8FC03206940F02000206100BFF5
:1054300000BF00BF206840F020002060206840F4DA
:1054400080702060C4F8FC13206940F020002061C7
:1054500000BF00BF00BF206840F02000206020682F
:1054600040F480702060206940F400702061206961
:1054700040F480702061206840F02000206095207A
:10548000C4F8FC03206940F02000206100BF00BF89
:1054900000BF206840F020002060206840F4807049
:1054A00020604FF48870C4F8FC03206940F02000AD
:1054B000206100BF00BF00BF206840F020002060D6
:1054C000206840F480702060206940F40070206102
:1054D000206940F480702061206840F02000206046
:1054E0009720C4F8FC03206940F02000206100BF31
:1054F00000BF00BF206840F020002060206840F41A
:1055000080702060C4F8FC53206940F020002061C6
:1055100000BF00BF00BF206840F02000206020686E
:1055200040F480702060206940F4007020612069A0
:1055300040F480702061206840F0200020609820B6
:10554000C4F8FC03206940F02000206100BF00BFC8
:1055500000BF206840F020002060206840F4807088
:105560002060C4F8FC53206940F02000206100BF97
:1055700000BF00BF206840F020002060206840F499
:1055800080702060206940F400702061206940F440
:1055900080702061206840F020002060C4F8FC1377
:1055A000206940F02000206100BF00BF00BF2068DC
:1055B00040F020002060206840F48070206041F2BC
:1055C0001800C4F8FC03206940F02000206100BFEF
:1055D00000BF00BF206840F020002060206840F439
:1055E00080702060206940F400702061206940F4E0
:1055F00080702061206840F020002060C4F8FC2307
:10560000206940F02000206100BF00BF00BF20687B
:1056100040F020002060206840F48070206040F25C
:105620007310C4F8FC03206940F02000206100BF23
:1056300000BF00BF206840F020002060206840F4D8
:105640008070206001B0BDE8F08F0000704700005E
:10565000FBF766BC4EF68850CEF20000016841F4BC
:10566000700101607047000040F2FF7C0268C4F2E4
:10567000000C604524DD40F60003C4F200039842AC
:1056800027D043F20043C4F20103984221D042F6EE
:105690000043C4F2010398421BD043F2FF33C4F22B
:1056A000010398421FDC604530DCB0F1804F47D0E9
:1056B00040F20043C4F20003984241D044E000BFEE
:1056C000B0F1804F05D040F20043C4F2000398428D
:1056D000E3D14B6822F070021A4343F2FF33C4F265
:1056E00001039842DFDD44F2FF33C4F20103984224
:1056F0001ADC43F20043C4F20103984220D044F282
:105700000003C4F2010398421AD01DE040F60003E2
:10571000C4F20003984213D042F60043C4F20103DE
:1057200098420DD010E000BF44F60003C4F201031C
:10573000984205D044F20043C4F20103984203D1D9
:10574000CB6822F440721A4380B54B6922F0800E78
:105750008A6843EA0E03D1F800C00360C262A0F178
:105760008042A2F596324FEAB222072AC0F828C03A
:10577000BDE8804007D8012303FA02F212F0E50FDA
:105780001CBF09690163012141617047816ACA0731
:105790000CD18A0715D44A071ED40A0727D4CA0693
:1057A00030D48A0639D44A0642D457E00268D0F889
:1057B0002CC0536823F4003343EA0C0353608A0778
:1057C000E9D50268D0F830C0536823F4803343EA47
:1057D0000C0353604A07E0D50268D0F834C0536820
:1057E00023F4802343EA0C0353600A07D7D50268E9
:1057F000D0F838C0536823F4004343EA0C035360E5
:10580000CA06CED50268D0F83CC0936823F4805312
:1058100043EA0C0393608A06C5D50268D0F840C0FD
:10582000936823F4005343EA0C0393604A0615D5AA
:10583000D0F800C0436CDCF80420B3F5801F22F4DC
:10584000801242EA0302CCF8042007D1DCF80420DD
:10585000836C22F4C0021A43CCF80420090658BF16
:1058600070470168C06C4A6822F400221043486007
:1058700070470000B0B504460020C4F88800FBF76C
:1058800049FB216805460A68120705D408684007E5
:1058900014D400203CE000BFC8698002F6D4FBF7B6
:1058A00039FB2168421B0868B2F1007F28D240070B
:1058B00044BFC8695FEA0050EED50FE0C8694002F6
:1058C000E7D4FBF727FB2168421B0868B2F1007F91
:1058D00016D24007F2D5C8690005EFD54FF4006035
:1058E00008620868842220F4D0700860886820F07C
:1058F000010088602020C4F880000320882109E08E
:1059000020F4D0700860886820F0010088600320CF
:10591000842180222023A3506350002184F87C102E
:10592000B0BD0000806A0021A0F85E10A0F85610FB
:10593000FCF7BABD40F27001C2F20001002001F88C
:10594000010B40F22C10C2F200000122FCF736BF1E
:1059500040F27000C2F2000040F2B8110278C2F2C8
:105960000001096842B14268891AB1F57A7F82BFA5
:10597000002101707047704741607047B0F86020A7
:105980000168D0F88430222B20D1D1F824C0836D57
:1059900002EA0C0223F8022B8365B0F85E20013A7C
:1059A000A0F85E20B0F85E20002A18BF70470A6891
:1059B00022F490720A608A6822F001028A60202133
:1059C000C0F884100021C166FCF77EBF886940F0F2
:1059D00008008861704700002DE9F04381B004465B
:1059E000B0F86050D0F8840022282DD1B4F8686057
:1059F00076B34FF6FE78CEF6FF784FF020090027F9
:105A000003E000BF013E300422D02068A16D426A4D
:105A10002A4021F8022BA165B4F85E100139A4F8E0
:105A20005E10B4F85E100029ECD1016821F4807199
:105A30000160816801EA080181602046C4F8849011
:105A4000E766FCF741FFDDE720680821183011E028
:105A5000B4F85E0088B1B4F8681088420DD22068AE
:105A6000816821F08051816045F67D11C0F600010A
:105A7000E166202102681143016001B0BDE8F083B6
:105A8000B0F860100268D0F88430222B20D1526A1E
:105A9000836D11401970816D01318165B0F85E1020
:105AA0000139A0F85E10B0F85E10002918BF7047E9
:105AB00001680A6822F490720A608A6822F0010282
:105AC0008A602021C0F884100021C166FCF7FCBE6A
:105AD000906940F008009061704700002DE9F043A4
